{
  "contractName": "MachineManagement",
  "abi": [
    {
      "constant": true,
      "inputs": [
        {
          "name": "",
          "type": "uint256"
        }
      ],
      "name": "tasks",
      "outputs": [
        {
          "name": "id",
          "type": "uint256"
        },
        {
          "name": "taskType",
          "type": "string"
        },
        {
          "name": "machine",
          "type": "string"
        },
        {
          "name": "source",
          "type": "string"
        },
        {
          "name": "completed",
          "type": "bool"
        }
      ],
      "payable": false,
      "stateMutability": "view",
      "type": "function",
      "signature": "0x8d977672"
    },
    {
      "constant": true,
      "inputs": [],
      "name": "taskCount",
      "outputs": [
        {
          "name": "",
          "type": "uint256"
        }
      ],
      "payable": false,
      "stateMutability": "view",
      "type": "function",
      "signature": "0xb6cb58a5"
    },
    {
      "anonymous": false,
      "inputs": [
        {
          "indexed": false,
          "name": "id",
          "type": "uint256"
        },
        {
          "indexed": false,
          "name": "taskType",
          "type": "string"
        },
        {
          "indexed": false,
          "name": "machine",
          "type": "string"
        },
        {
          "indexed": false,
          "name": "source",
          "type": "string"
        },
        {
          "indexed": false,
          "name": "completed",
          "type": "bool"
        }
      ],
      "name": "TaskCreated",
      "type": "event",
      "signature": "0x59aed97f8a348bc16f8af76ab976d9b7b56efaffa05bd3a9a0054f7498b57287"
    },
    {
      "anonymous": false,
      "inputs": [
        {
          "indexed": false,
          "name": "id",
          "type": "uint256"
        },
        {
          "indexed": false,
          "name": "completed",
          "type": "bool"
        }
      ],
      "name": "TaskCompleted",
      "type": "event",
      "signature": "0xe21fa966ca5cd02748c0752352d18c48165e61cb55b4c29cccf924b5a95fcff1"
    },
    {
      "constant": false,
      "inputs": [
        {
          "name": "_taskType",
          "type": "string"
        },
        {
          "name": "_machine",
          "type": "string"
        },
        {
          "name": "_source",
          "type": "string"
        }
      ],
      "name": "createTask",
      "outputs": [],
      "payable": false,
      "stateMutability": "nonpayable",
      "type": "function",
      "signature": "0xd2344f0a"
    },
    {
      "constant": false,
      "inputs": [
        {
          "name": "_id",
          "type": "uint256"
        }
      ],
      "name": "toggleCompleted",
      "outputs": [],
      "payable": false,
      "stateMutability": "nonpayable",
      "type": "function",
      "signature": "0x455f5024"
    },
    {
      "constant": true,
      "inputs": [],
      "name": "getTaskCount",
      "outputs": [
        {
          "name": "",
          "type": "uint256"
        }
      ],
      "payable": false,
      "stateMutability": "view",
      "type": "function",
      "signature": "0xc17a340e"
    },
    {
      "constant": true,
      "inputs": [
        {
          "name": "_id",
          "type": "uint256"
        }
      ],
      "name": "getValues",
      "outputs": [
        {
          "name": "",
          "type": "string"
        },
        {
          "name": "",
          "type": "string"
        },
        {
          "name": "",
          "type": "string"
        },
        {
          "name": "",
          "type": "bool"
        }
      ],
      "payable": false,
      "stateMutability": "view",
      "type": "function",
      "signature": "0xb29e522c"
    }
  ],
  "bytecode": "0x60806040526000805534801561001457600080fd5b50610f81806100246000396000f3fe6080604052600436106100775763ffffffff7c0100000000000000000000000000000000000000000000000000000000600035041663455f5024811461007c5780638d977672146100a8578063b29e522c14610228578063b6cb58a51461039e578063c17a340e146103c5578063d2344f0a146103da575b600080fd5b34801561008857600080fd5b506100a66004803603602081101561009f57600080fd5b503561059b565b005b3480156100b457600080fd5b506100d2600480360360208110156100cb57600080fd5b503561085a565b6040518086815260200180602001806020018060200185151515158152602001848103845288818151815260200191508051906020019080838360005b8381101561012757818101518382015260200161010f565b50505050905090810190601f1680156101545780820380516001836020036101000a031916815260200191505b50848103835287518152875160209182019189019080838360005b8381101561018757818101518382015260200161016f565b50505050905090810190601f1680156101b45780820380516001836020036101000a031916815260200191505b50848103825286518152865160209182019188019080838360005b838110156101e75781810151838201526020016101cf565b50505050905090810190601f1680156102145780820380516001836020036101000a031916815260200191505b509850505050505050505060405180910390f35b34801561023457600080fd5b506102526004803603602081101561024b57600080fd5b5035610a2b565b604080518215156060820152608080825286519082015285519091829160208084019284019160a08501918a019080838360005b8381101561029e578181015183820152602001610286565b50505050905090810190601f1680156102cb5780820380516001836020036101000a031916815260200191505b50848103835287518152875160209182019189019080838360005b838110156102fe5781810151838201526020016102e6565b50505050905090810190601f16801561032b5780820380516001836020036101000a031916815260200191505b50848103825286518152865160209182019188019080838360005b8381101561035e578181015183820152602001610346565b50505050905090810190601f16801561038b5780820380516001836020036101000a031916815260200191505b5097505050505050505060405180910390f35b3480156103aa57600080fd5b506103b3610c46565b60408051918252519081900360200190f35b3480156103d157600080fd5b506103b3610c4c565b3480156103e657600080fd5b506100a6600480360360608110156103fd57600080fd5b81019060208101813564010000000081111561041857600080fd5b82018360208201111561042a57600080fd5b8035906020019184600183028401116401000000008311171561044c57600080fd5b91908080601f016020809104026020016040519081016040528093929190818152602001838380828437600092019190915250929594936020810193503591505064010000000081111561049f57600080fd5b8201836020820111156104b157600080fd5b803590602001918460018302840111640100000000831117156104d357600080fd5b91908080601f016020809104026020016040519081016040528093929190818152602001838380828437600092019190915250929594936020810193503591505064010000000081111561052657600080fd5b82018360208201111561053857600080fd5b8035906020019184600183028401116401000000008311171561055a57600080fd5b91908080601f016020809104026020016040519081016040528093929190818152602001838380828437600092019190915250929550610c53945050505050565b6105a3610e8b565b600082815260016020818152604092839020835160a0810185528154815281840180548651600296821615610100026000190190911695909504601f8101859004850286018501909652858552909491938584019390929083018282801561064c5780601f106106215761010080835404028352916020019161064c565b820191906000526020600020905b81548152906001019060200180831161062f57829003601f168201915b5050509183525050600282810180546040805160206001841615610100026000190190931694909404601f810183900483028501830190915280845293810193908301828280156106de5780601f106106b3576101008083540402835291602001916106de565b820191906000526020600020905b8154815290600101906020018083116106c157829003601f168201915b505050918352505060038201805460408051602060026001851615610100026000190190941693909304601f81018490048402820184019092528181529382019392918301828280156107725780601f1061074757610100808354040283529160200191610772565b820191906000526020600020905b81548152906001019060200180831161075557829003601f168201915b50505091835250506004919091015460ff16151560209182015260808201805115905260008481526001808352604090912083518155838301518051949550859491936107c493850192910190610ebd565b50604082015180516107e0916002840191602090910190610ebd565b50606082015180516107fc916003840191602090910190610ebd565b50608091820151600491909101805460ff191691151591909117905581015160408051848152911515602083015280517fe21fa966ca5cd02748c0752352d18c48165e61cb55b4c29cccf924b5a95fcff19281900390910190a15050565b600160208181526000928352604092839020805481840180548651600296821615610100026000190190911695909504601f810185900485028601850190965285855290949193929091908301828280156108f65780601f106108cb576101008083540402835291602001916108f6565b820191906000526020600020905b8154815290600101906020018083116108d957829003601f168201915b50505060028085018054604080516020601f60001961010060018716150201909416959095049283018590048502810185019091528181529596959450909250908301828280156109885780601f1061095d57610100808354040283529160200191610988565b820191906000526020600020905b81548152906001019060200180831161096b57829003601f168201915b5050505060038301805460408051602060026001851615610100026000190190941693909304601f8101849004840282018401909252818152949594935090830182828015610a185780601f106109ed57610100808354040283529160200191610a18565b820191906000526020600020905b8154815290600101906020018083116109fb57829003601f168201915b5050506004909301549192505060ff1685565b60608060606000610a3a610e8b565b600086815260016020818152604092839020835160a0810185528154815281840180548651600296821615610100026000190190911695909504601f81018590048502860185019096528585529094919385840193909290830182828015610ae35780601f10610ab857610100808354040283529160200191610ae3565b820191906000526020600020905b815481529060010190602001808311610ac657829003601f168201915b5050509183525050600282810180546040805160206001841615610100026000190190931694909404601f81018390048302850183019091528084529381019390830182828015610b755780601f10610b4a57610100808354040283529160200191610b75565b820191906000526020600020905b815481529060010190602001808311610b5857829003601f168201915b505050918352505060038201805460408051602060026001851615610100026000190190941693909304601f8101849004840282018401909252818152938201939291830182828015610c095780601f10610bde57610100808354040283529160200191610c09565b820191906000526020600020905b815481529060010190602001808311610bec57829003601f168201915b50505091835250506004919091015460ff161515602091820152810151604082015160608301516080909301519199909850919650945092505050565b60005481565b6000545b90565b6040805160a0810182526000805480835260208084018881528486018890526060850187905260808501849052918352600180825294909220835181559051805193949193610caa93928501929190910190610ebd565b5060408201518051610cc6916002840191602090910190610ebd565b5060608201518051610ce2916003840191602090910190610ebd565b50608091820151600491909101805460ff1916911515919091179055600080546001018082556040805182815293840183905260a0602080860182815289519287019290925288517f59aed97f8a348bc16f8af76ab976d9b7b56efaffa05bd3a9a0054f7498b572879694958a958a958a959294919390840191606085019160c08601918a01908083838a5b83811015610d86578181015183820152602001610d6e565b50505050905090810190601f168015610db35780820380516001836020036101000a031916815260200191505b50848103835287518152875160209182019189019080838360005b83811015610de6578181015183820152602001610dce565b50505050905090810190601f168015610e135780820380516001836020036101000a031916815260200191505b50848103825286518152865160209182019188019080838360005b83811015610e46578181015183820152602001610e2e565b50505050905090810190601f168015610e735780820380516001836020036101000a031916815260200191505b509850505050505050505060405180910390a1505050565b60a060405190810160405280600081526020016060815260200160608152602001606081526020016000151581525090565b828054600181600116156101000203166002900490600052602060002090601f016020900481019282601f10610efe57805160ff1916838001178555610f2b565b82800160010185558215610f2b579182015b82811115610f2b578251825591602001919060010190610f10565b50610f37929150610f3b565b5090565b610c5091905b80821115610f375760008155600101610f4156fea165627a7a7230582024a92ee6900911d3e75131f8ba503c5034d47895a49ba5966accd8dfbdd7463b0029",
  "source": "// SPDX-License-Identifier: MIT\r\npragma solidity >=0.4 <0.9;\r\n\r\ncontract MachineManagement {\r\n    struct Task {\r\n        uint id;\r\n        string taskType;\r\n        string machine;\r\n        string source;\r\n        bool completed;\r\n    }\r\n    \r\n    uint public taskCount = 0;\r\n\r\n    mapping(uint => Task) public tasks;\r\n\r\n    event TaskCreated(\r\n        uint id,\r\n        string taskType,\r\n        string machine,\r\n        string source,\r\n        bool completed\r\n    );\r\n\r\n    event TaskCompleted(\r\n        uint id,\r\n        bool completed\r\n    );\r\n\r\n    function createTask(string memory _taskType, string memory _machine, string memory _source) public {\r\n        tasks[taskCount] = Task(taskCount, _taskType, _machine, _source, false);\r\n        taskCount ++;\r\n        emit TaskCreated(taskCount, _taskType, _machine, _source, false);\r\n    }\r\n\r\n    function toggleCompleted(uint _id) public {\r\n        Task memory _task = tasks[_id];\r\n        _task.completed = !_task.completed;\r\n        tasks[_id] = _task;\r\n        emit TaskCompleted(_id, _task.completed);\r\n    }\r\n\r\n    function getTaskCount() public view returns ( uint ) {\r\n        return taskCount;\r\n    }\r\n\r\n    function getValues( uint _id) public view returns ( string memory, string memory , string memory , bool  ){\r\n        Task memory myTask = tasks[_id];\r\n        return (myTask.taskType , myTask.machine ,  myTask.source ,  myTask.completed );\r\n    }\r\n\r\n\r\n}",
  "sourcePath": "C:/Users/Juan A/Desktop/Personal Projects/comp-4300-project/contracts/MachineManagement.sol",
  "compiler": {
    "name": "solc",
    "version": "0.5.0+commit.1d4f565a.Emscripten.clang"
  },
  "schemaVersion": "3.0.1",
  "updatedAt": "2022-12-13T00:04:54.075Z",
  "devdoc": {
    "methods": {}
  },
  "userdoc": {
    "methods": {}
  }
}